:1000000007C1000022C100000C949B0F1EC100001C
:100010001CC100001AC1000018C1000016C1000078
:1000200014C1000012C1000010C100000EC1000088
:100030000CC100000AC100000C94570D06C100005D
:1000400004C1000002C1000000C10000FEC00000A9
:100050000C94E70FFAC00000F8C00000F6C00000E2
:10006000F4C00000F2C00000F0C00000EEC00000CC
:10007000ECC00000EAC00000E8C00000E6C00000DC
:10008000E4C00000E2C00000E0C00000DEC00000EC
:10009000DCC00000DAC00000D8C00000D6C00000FC
:1000A000D4C00000D2C00000D0C00000CEC000000C
:1000B000CCC00000CAC00000C8C00000C6C000001C
:1000C000C4C00000C2C00000C0C00000BEC000002C
:1000D000BCC00000BAC00000B8C00000B6C000003C
:1000E000B4C00000B2C00000B0C00000AEC000004C
:1000F000ACC00000AAC00000A8C00000A6C000005C
:100100000C944E0F0C94740FA0C000009EC0000011
:100110009CC000009AC0000098C0000096C000007B
:1001200094C0000092C0000090C000008EC000008B
:100130008CC000008AC0000088C0000086C000009B
:1001400084C0000082C0000080C000007EC00000AB
:100150007CC000007AC0000078C0000076C00000BB
:1001600074C0000072C0000070C000006EC00000CB
:100170006CC000006AC0000068C0000066C00000DB
:1001800064C0000062C0000060C000005EC00000EB
:100190005CC000005AC0000058C0000056C00000FB
:1001A00054C0000052C0000050C000004EC000000B
:1001B0004CC000004AC0000048C0000046C000001B
:1001C00044C0000042C0000040C000003EC000002B
:1001D0003CC000003AC0000038C0000036C000003B
:1001E00034C0000032C0000030C000002EC000004B
:1001F0002CC00000A3C7000028C000003004540435
:100200001C0554041C058A049E041C05F204FB040E
:1002100011241FBECFEFCDBFDFE2DEBF12E2A0E0B0
:10022000B0E2E4E3F1E202C005900D92AA30B1071A
:10023000D9F726E2AAE0B2E201C01D92AB3CB207B8
:10024000E1F70E94D40C0C949810DACE292F3327B2
:100250002230310559F02330310569F02130310564
:1002600009F582E190E029E931E225C08EE390E0D2
:100270002BE531E220C099278130910549F018F033
:10028000029759F014C084E090E027E531E213C0F2
:100290008CE190E029E331E20EC086E190E021E2BA
:1002A00031E209C080E090E020E030E004C080E06E
:1002B00090E020E030E0FA01208331830895CF936D
:1002C000DF93DC01942F9F709A3030F0FD0131965E
:1002D000995C12969C9305C0FD013196905D129633
:1002E0009C93DB01CA01807F9927AA27BB276894CA
:1002F00013F8B695A795979587951694D1F78A30F8
:1003000028F0EF012197895C808304C0EF012197D9
:10031000805D8083852F8F708A3018F0895C888398
:1003200002C0805D8883DF91CF910895AF92BF9224
:10033000CF92DF92EF92FF920F931F93CF93DF93B1
:10034000CDB7DEB72B97CDBFDEBFC982DA82EB8295
:10035000FC820D831E832F83388749875A876B87DA
:10036000EE2069F1DE0114965C01AC014F5F5F4F36
:10037000EA948E010E0D111D0B5F1F4F9D91292FC9
:1003800022952F702A3028F0BA01295CF5012083CC
:1003900004C0BA01205DF50120839F709A3020F0DF
:1003A000995CFB01908303C0905DFB019083F2E0B8
:1003B000AF0EB11C4E5F5F4FA017B107F9F62B9639
:1003C000CDBFDEBFDF91CF911F910F91FF90EF90D6
:1003D000DF90CF90BF90AF900895CF93DF93EC0163
:1003E000DC0113969C01265F3F4FE0E09D91E927D9
:1003F000F0E0E050F04EE081A217B307B9F7EA87CA
:10040000DF91CF910895CF93DF939C01992324F43A
:1004100022273327281B390B522F432FFB01EB01D7
:10042000249628EE33E0852F942FB9010E940C10FA
:10043000605D6193582F492FADECBCEC0E942610F3
:100440009C01369527953695279536952795EC1777
:10045000FD0749F7DF91CF910895CF93DF93EC012A
:10046000FC0170968BE0DF011D928A95E9F782E02E
:100470008C83898783E08E8761E0CE010196E2D488
:10048000882351F061E0CE010696DCD4882321F068
:1004900061E0CE010B96D6D4DF91CF910895CF9332
:1004A000FC01909127229430F9F484899589A689DA
:1004B000B789892B8A2B8B2BC9F0C62F8181B8D3A2
:1004C0008091302290913122FC01EF5BFF4F20811F
:1004D00031978081281720F063D34ED5811107C052
:1004E0008C2F96D380E003C082E001C082E0CF91E0
:1004F0000895FB01682F84859585D1DF21E030E0E8
:10050000811102C020E030E088279927821B930BDD
:100510000895CF93DF93FC01909127229430D1F579
:1005200084899589A689B789892B8A2B8B2BA1F180
:1005300081817ED38091342288234CF4E091302253
:10054000F0913122EF5BFF4F808190E00DC0209150
:10055000302230913122F901E05CFF4F80813196E9
:10056000208190E0821B9109892BC1F0809130227B
:1005700090913122FC01EF5BFF4FD0813197C08118
:100580000FD3DC1768F0F8D4C82F81110BC008D343
:100590008C2F08C082E006C082E004C080E002C068
:1005A00080E000C0DF91CF910895CF93DF93FC01ED
:1005B00090912722943081F484899589A689B789FE
:1005C000892B8A2B8B2B41F0EF01818131D370D3A2
:1005D000882311F0CE019DDFDF91CF910895CF9355
:1005E000DF9320912722243009F052C0FC01448976
:1005F000558966897789452B462B472B09F44BC0D3
:10060000868116D361D3882309F448C080913422AF
:1006100088234CF4E0913022F0913122EF5BFF4FC0
:10062000808190E00DC02091302230913122F9017B
:10063000E05CFF4F80813196208190E0821B910920
:10064000892B21F0D5D2C82FD0E002C0CFEFDFEF49
:100650008091342288234CF4E0913022F0913122B1
:10066000EF5BFF4F208130E00DC040913022509170
:100670003122FA01E05CFF4F20813196808130E029
:10068000281B3109232B69F4A4D28C2F9D2F0BC07A
:100690008FEF9FEF08C08FEF9FEF05C08FEF9FEFA9
:1006A00002C08C2F9D2FDF91CF910895FC0184858E
:1006B000958595DF992314F48EEF9FEF0895FB0144
:1006C0002EE0DB011D922A95E9F723E0238329E739
:1006D00032E02087318726E533E02287338784871D
:1006E000958708950895FF920F931F93CF93DF93FB
:1006F000EC0103D3882309F47EC0888190E0209127
:100700002C2230912D222817390709F074C08091CE
:100710002922813259F018F4803229F16CC08232DA
:1007200009F450C0833209F45CC065C0809128226E
:10073000813A09F060C0FAD2BBD28823E9F38C89F0
:10074000FD880E891F8964D28F2D62D2802F60D2DE
:10075000812F5ED2888D5CD2898D5AD28A8D58D2F3
:100760001FD2F3D348C080912822813209F043C0C0
:10077000DDD205C080912722882309F43CC0A4D291
:100780008823C1F335D2F82E33D2182F31D2082F57
:100790002FD2402F50E060E070E0BA015527442787
:1007A000782B4F29512B4C8B5D8B6E8B7F8B20D2FE
:1007B000888F1ED2898F1CD28A8F0BD2C6D3CE01CE
:1007C00091DF19C0809128228132A9F4AFD2BDD324
:1007D00080912A2290912B22888B998BCE0182DFE7
:1007E0000AC080912822813231F4A0D2AED3609128
:1007F0002A22CE0177DFDF91CF911F910F91FF90D9
:100800000895EF92FF920F931F93CF93DF93CDB78D
:10081000DEB7EA97CDBFDEBF08E212E20F2EF0E3AB
:10082000EF2EF2E2FF2EF02DE3D1F80181938F013C
:10083000EE16FF06C9F70E94AD0C5FD2882309F4BB
:10084000FBC0E8E2F2E220813181832F90E08A3020
:10085000910508F0F1C0FC01E250FF4F0C9420100C
:10086000203821F0223809F0E7C008C01091242276
:1008700080912522882381F012600EC080912C2265
:100880008F70D6D1E0913222F0913322118112FB88
:10089000112710F980E0CCD149D2812FB9D180E065
:1008A000B7D17ED152D3C8C0222309F4CBC02230A5
:1008B00009F0C2C0CCC081E0333009F080E0809301
:1008C000252223C0E0912C221E2F1F7009F4B4C0F2
:1008D000812FAED180912922833011F453D215C0DB
:1008E000E0913222F091332281818B7F818324E851
:1008F000129FF0011124EA58FD4D1082E09132223E
:10090000F091332280818E7F808380E091D10ED25E
:100910001CD392C0211190C010912A221F7706D2B9
:1009200014D3C6D18823E9F31093C304111102C074
:1009300082E001C083E0809327227EC020582230CD
:1009400008F07AC080912A2290912B228C3DE3E01E
:100950009E0709F037C083E08A838AE389830FB753
:10096000F894AE014D5F5F4F60E078E020EC31E03D
:1009700012E0F9011287872F90E0A0E0B0E0ABBF52
:10098000FC019791892FF901128660FF03C08295BF
:100990008F707F5F8F708A3018F090E0C79602C02A
:1009A00090E0C096FA0181939193AF016F5F6C3133
:1009B00001F70FBFBBD16AE370E0CE01019668D0AA
:1009C00008D13AC0AE014F5F5F4F60912C223EDCF0
:1009D0008C01892B89F1AAD1B80189819A8158D0DB
:1009E000F8D02AC0203841F5A1D18091232210D11E
:1009F000D7D0ABD221C021111FC080912A22909163
:100A00002B2299270297C4F491D180912A228093B6
:100A100023229BD280912322882321F084E080939B
:100A2000272209C08091C304811102C081E001C066
:100A300084E08093272287D760D1882371F076D114
:100A4000A1D10BC080912A228130B1F734CF80919F
:100A50002A22882309F436CF58CFEA96CDBFDEBFCD
:100A6000DF91CF911F910F91FF90EF90089508951E
:100A7000CF9380912722882349F0C091342280E0CF
:100A8000D7D03BD18111BDDE8C2FD2D0CF9108952C
:100A9000CF92DF92EF92FF920F931F93CF93DF934A
:100AA000C82ED92E8B01809134228068C1D0C0918C
:100AB0002E22D0912F22C017D10738F00115110531
:100AC00019F46ED0E80101C0E801EC2CFD2CD12C0A
:100AD00044C080912722882309F450C0853009F44E
:100AE0004FC00BD181114EC0EFD0811142C0E0D078
:100AF000882399F180913422882374F4E091302284
:100B0000F0913122EF5BFF4F008110E02097F1F070
:100B10000830110578F01AC080913022909131226E
:100B2000FC01E05CFF4F00813196808110E0081BE2
:100B30001109ECCFF70181917F016AD021970F5FF6
:100B40001F4F209719F008301105A1F7DD24D39429
:100B50000830110509F0D12C23D0209709F0B9CF26
:100B6000D110B7CF06C080912722882369F0853045
:100B700069F0AAD08823B9F380E009C082E007C0F9
:100B800083E005C081E003C082E001C083E0DF9123
:100B9000CF911F910F91FF90EF90DF90CF9008952C
:100BA000E0913222F0913322A0913022B091312293
:100BB000AF5BBF4F8C9190E08283938380818D796E
:100BC0008083E0913022F0913122EF5BFF4F108261
:100BD0000895E0913222F091332280818D798083D3
:100BE000E0913022F0913122EF5BFF4F10820895A7
:100BF0008091302290913122FC01EF5BFF4F2081E8
:100C000031E0320F3083FC01E20FF11D8081089545
:100C10002091302230913122F901EF5BFF4F90811A
:100C200041E0490F4083F901E90FF11D80830895E8
:100C300080933422282F2F7030E04091C6045091C9
:100C4000C7048823E4F464E8629FC001639F900DA9
:100C5000112489589D4D8093302290933122C901EF
:100C600082959295907F9827807F982708969A0181
:100C7000280F391F2093322230933322089564E8DD
:100C8000629FC001639F900D11248B5C9D4D8093EA
:100C900030229093312222953295307F3227207F67
:100CA0003227240F351F20933222309333220895A8
:100CB000809134228068BCDFE0913222F0913322AF
:100CC0008081869581700895809134228F77B0DF7E
:100CD000E0913222F0913322808185FF0CC0809117
:100CE00030229091312222813381FC01E05CFF4F60
:100CF000208381E0089580E00895809134228F77E9
:100D000097DFE0913222F0913322808184FF0CC082
:100D1000809130229091312222813381FC01E05C6C
:100D2000FF4F208381E0089580E008958091342270
:100D30008F777EDFE0913222F091332280818D78AF
:100D40008083E0913222F091332280818160808320
:100D5000E0913022F0913122EF5BFF4F10828091C1
:100D60003422806865DFE0913222F0913322808165
:100D700081608083E0913022F0913122EF5BFF4F60
:100D800010820895E0913222F091332281818460B3
:100D90008183E0913222F09133228181807C803402
:100DA00059F480913422805843DFE0913222F0914F
:100DB000332281818460818308951F93CF93DF93D1
:100DC000D82F162FC42F34DFE0913222F091332236
:100DD0001182E0913222F0913322DD23A4F01082BF
:100DE000E0913222F09133221183E0913222F0918E
:100DF0003322128213828091302290913122848397
:100E0000958340E014C082E08083E0913222F0912B
:100E100033221183E0913222F09133221282138225
:100E20008091302290913122848395834C2FFC0154
:100E3000E05CFF4F40833196108281E0DF91CF91DB
:100E40001F910895CF92DF92EF92FF920F931F931D
:100E5000CF93DF93662309F44AC0C62E082F192FBB
:100E6000D12CF801E080EE20D9F1C181D2814381FB
:100E70008481823010F438E001C038E1C930D105F6
:100E800050F088E090E020E02F5F880F991F8C17CA
:100E90009D07D0F301C020E0232B8E2D8F7090E0B2
:100EA00005973CF52F7EC134D10528F5442319F070
:100EB000413021F006C02064F22E07C0206CF22ED3
:100EC00009C02068F22E411105C04C2F6F2D80E81B
:100ED0008E0D73DF4C2F6F2D8E2D6FDF882361F009
:100EE000D3940B5F1F4FCD10BCCF81E005C081E0D4
:100EF00003C080E001C080E0DF91CF911F910F918E
:100F0000FF90EF90DF90CF90089520E030E0A0ECCC
:100F1000B4E01696ED91FC911797C90182959295D0
:100F2000907F9827807F9827E80FF91F11861696E3
:100F30004D915C911797FA01E80FF91F11822F5F0D
:100F40003F4F2530310529F70895809128228823C5
:100F500074F404C080912722882369F0B5DE8823C9
:100F6000C9F337CE089580912722882321F0A0DE8F
:100F70008823C9F315CE0895FF920F931F93CF9343
:100F8000DF93E091C604F091C704E05BFF4FC0819E
:100F9000D1810F2EF4E6FF2EF02D00EC14E002C0FC
:100FA000F22EEC0180913422882324F481DE882300
:100FB00021F022C089DE811121C08091272288235F
:100FC000F9F08530F9F0E0913222F09133228181FD
:100FD00082FD1AC0D8011696ED91FC911797E05B3F
:100FE000FF4F80819181C817D907D9F22FEF2F0DBC
:100FF000F110D6CF84E009C080E007C080E005C0D2
:1010000082E003C083E001C081E0DF91CF911F91B6
:101010000F91FF90089580911C2580FF04C088E304
:101020008093440002C01092440080911C2583FFED
:1010300006C0E0E4F0E084818160848305C0E0E4E0
:10104000F0E08481836084836CD072D0E0ECF4E0C3
:1010500080818F77808380818068808310922722AF
:1010600010922322109225221092242280911C2576
:1010700080FF04C080818F7B808305C0E0ECF4E0BA
:1010800080818064808348E068E480E896DE48E000
:1010900068E480E092DEE0ECF4E0808580648087A4
:1010A0008181816081830895CF93DF9380931C2594
:1010B0002FB7F894C0ECD1E082E08A87EAE1F0E053
:1010C000E491A0ECB4E0DA96EC93DA97EBE1F0E08F
:1010D000E491DB96EC93DB971A868AEC94E28E7FA0
:1010E00016968D939C93179784E18C9380911C2581
:1010F00082FF04C083E08093C8040BC080911C254C
:1011000081FF04C082E08093C80403C081E0809323
:10111000C8042FBF81E0809326227DDFDF91CF912D
:101120000895E0ECF4E0808583708087118608954F
:10113000E0ECF4E08FEF8287848708951F920F928E
:101140000FB60F9211242F933F934F935F936F939A
:101150007F938F939F93AF93BF93EF93FF93809170
:10116000CA04882344F48091C804882324F480E8C6
:101170008093CA047CDC8091CA0486FF06C080E4A8
:101180008093CA0410922722DCD38091CA0485FF81
:1011900015C080E28093CA0480912322882321F025
:1011A00084E08093272209C08091C304811102C08A
:1011B00081E001C083E080932722C4D38091CA04D8
:1011C00084FF14C0E0ECF4E080E1828782E0809349
:1011D000272210922322138298DE48E068E480E8F8
:1011E000ECDD48E068E480E0E8DD41DCFF91EF9170
:1011F000BF91AF919F918F917F916F915F914F912F
:101200003F912F910F900FBE0F901F901895E0EC1B
:10121000F8E092819283838382818823ECF7809126
:10122000C30808951F93CF93DF93C0E4D6E010E185
:101230001E8380ECECDF1D83DF91CF911F91089519
:101240001F93CF93DF93C0E6D6E010E11E8380ECBE
:10125000DEDF1D83DF91CF911F9108951F93CF9300
:10126000DF93C0E2D6E018E01E8380ECD0DF1D8360
:10127000DF91CF911F9108951F93CF93DF93182F84
:10128000D62FC42F85E0C3DF812FC1DF8D2FBFDFB5
:101290008C2FBDDFDF91CF911F9108951F93CF93C6
:1012A000DF93213039F4C0E4D6E010E11E83E4DF9F
:1012B0001D8311C0223039F4C0E6D6E010E11E8350
:1012C000DBDF1D8308C0233031F4C0E2D6E018E034
:1012D0001E83D2DF1D83DF91CF911F9108951F934D
:1012E000CF93DF93C0E4D6E010E11E83C5DF1D83FA
:1012F000DF91CF911F9108951F93CF93DF93C0E6A5
:10130000D6E010E11E83B8DF1D83DF91CF911F91DE
:1013100008951F93CF93DF93C0E2D6E018E01E83B9
:10132000ABDF1D83DF91CF911F910895813039F09C
:1013300018F0823039F0089581E869CF089582E885
:1013400066CF089584E863CF08951F93CF93DF930A
:10135000C0E4D6E010E11E83E9DF1D83DF91CF9169
:101360001F9108951F93CF93DF93C0E6D6E010E15D
:101370001E83DCDF1D83DF91CF911F9108951F93A2
:10138000CF93DF93C0E2D6E018E01E83CFDF1D834A
:10139000DF91CF911F9108950F931F93CF938B01EE
:1013A000880F805C34DFF801808191819695879564
:1013B00096958795969587952ADFF8018081829585
:1013C000880F807E24DF80E022DF80E020DFF801CC
:1013D00082818F701CDFF8018281882359F0C0E080
:1013E000F801EC0FF11D838112DFCF5FF8018281DC
:1013F000C817B0F3CF911F910F9108951F93CF930A
:10140000DF93C0E4D6E010E11E83C6DF1D83DF91C9
:10141000CF911F9108951F93CF93DF93C0E6D6E03D
:1014200010E11E83B9DF1D83DF91CF911F910895D5
:101430001F93CF93DF93C0E2D6E018E01E83ACDFAA
:101440001D83DF91CF911F9108950F931F93CF9329
:10145000DF938B01DCDE80E0DADE98E0899FE0013B
:10146000112480E0D4DE829586958770C82B80E0B9
:10147000CEDE80E0CCDEF801C083D18380E0C7DE21
:101480008F70F8018283882361F0C0E080E0BFDEC6
:10149000F801EC0FF11D8383CF5FF8018281C8173B
:1014A000A8F381E0DF91CF911F910F9108951F93D1
:1014B000CF93DF93C0E4D6E010E11E83C6DF1D8327
:1014C000DF91CF911F9108951F93CF93DF93C0E6D3
:1014D000D6E010E11E83B9DF1D83DF91CF911F910C
:1014E00008951F93CF93DF93C0E2D6E018E01E83E8
:1014F000ACDF1D83DF91CF911F910895413011F42E
:10150000D6CF0895423011F4DFCF0895433011F45F
:10151000E8CF089580E008950F931F93CF93DF9352
:10152000082FC0E4D6E010E11E8383E070DE802F38
:101530006EDE80E06CDE1D83DF91CF911F910F91F5
:1015400008950F931F93CF93DF93082FC0E6D6E043
:1015500010E11E8383E05BDE802F59DE80E057DEE2
:101560001D83DF91CF911F910F9108950F931F93CA
:10157000CF93DF93082FC0E2D6E018E01E8383E00C
:1015800046DE802F44DE80E042DE1D83DF91CF9176
:101590001F910F910895613011F4BECF089562300C
:1015A00011F4CFCF0895E2CF0895FF920F931F93C8
:1015B000CF93DF93F82E062FC0E4D6E010E11E8310
:1015C00082E025DE8F2D23DE802F21DE1D83DF913B
:1015D000CF911F910F91FF900895FF920F931F934A
:1015E000CF93DF93F82E062FC0E6D6E010E11E83DE
:1015F00082E00DDE8F2D0BDE802F09DE1D83DF9153
:10160000CF911F910F91FF900895FF920F931F9319
:10161000CF93DF93F82E062FC0E2D6E018E01E83AA
:1016200082E0F5DD8F2DF3DD802FF1DD1D83DF916D
:10163000CF911F910F91FF9008951F93CF93DF9348
:10164000E0E4F6E090EA918390E49283A0E6B6E0CD
:1016500092E011969C9311979093810698E0918364
:1016600020E1218311962C939093210690ED909385
:10167000C008662309F47EC0C82F80E18093450628
:101680008093650688E0809325068FE193E00197BB
:10169000F1F700C00000C6DDD3DDE0DD8FE39FE1A0
:1016A0000197F1F700C000008FE036DFD82F8FE000
:1016B00048DF182F8FE05ADFD295D695D770D430F7
:1016C00009F05AC0129516951770143009F056C0DB
:1016D000829586958770843009F052C08FE193E03F
:1016E0000197F1F700C0000060E08AE25EDF60E091
:1016F0008AE273DF60E08AE288DF67EE89E255DF25
:1017000067EE89E26ADF67EE89E27FDF61E088E207
:101710004CDF61E088E261DF61E088E276DF44E08F
:1017200064E080E6DCDD44E064E080E6E5DD44E0A2
:1017300064E080E6EEDD63EA8BE237DF63EA8BE2AA
:101740004CDF63EA8BE261DF4C2F60EE8FE0C7DD98
:101750004C2F60EE8FE0D0DD4C2F60EE8FE0D9DDB6
:1017600082E0809366068093860688E08093460632
:1017700081E007C081E005C080E003C080E001C0D7
:1017800080E0DF91CF911F910895413011F40DCF8A
:101790000895423011F421CF089537CF08950F9363
:1017A0001F93CF93DF93E0E5F0E080818260808338
:1017B000818181FFFDCFA0E5B0E016968C91169750
:1017C000846016968C931697C0E6D0E080E88D83EF
:1017D0008BEB8E8380EC91E022E0FC012287EDE12F
:1017E000F0E0E491EA83ECE1F0E0E491EB83FC01CA
:1017F000128681E08883E0E7F0E085E1808383E082
:10180000818394E5938393E5948390E59583809316
:1018100021068BEC12968C9312978C9188608C9396
:10182000E0E5F0E0818183FFFDCFE0E5F0E082ECD0
:101830008583808180618083818184FFFDCF88EDF5
:1018400084BF34E030934000E0E0FAE081E0808340
:1018500093E1918341E050E040A751A746A357A3ED
:1018600080938106A0E4B6E093E019969C931997C3
:10187000E0E6F6E02FE0218782872BE1208B40E233
:101880004387258B1A963C931A9750962C93E0E445
:10189000F8E0808320EC32E126A337A39683E0E0D2
:1018A000F8E0808320E83BEB26A337A39683809360
:1018B000260608E710E0C0E2D6E0F801808183FF49
:1018C00004C061E080E0B9DE03C061E080E0B5DE25
:1018D000882329F1E0E2F6E085818160858325E8AF
:1018E00088ED90E0A2EAB0E01BBEFD0184BF20833A
:1018F0002BBE80E0D9DB63E172E285E091E20E94D9
:101900005F0393E088ED08B618BE84BF9093800013
:101910008091820081FDFCCF08BE78940DC08D813E
:1019200082608D83FFEF29EF80E0F15020408040FE
:10193000E1F700C00000C1CFDF91CF911F910F915F
:1019400008950895089585E091E20E942D029091F6
:101950002122892380932122089585E091E20C942D
:1019600073030895CF93C62F40911122262F30E0A4
:10197000240F311D2937310564F470E023E132E290
:1019800041E050E072D380911122C80FC093112220
:1019900009C023E132E241E050E062E070E08BEA0E
:1019A00091E263D3CF910895FADE809122228111D2
:1019B000FCCF809110228823C1F3109210228091D5
:1019C00000219091012161EB71E20E94030268E025
:1019D0008EEA91E2C7DFE9CF1092172610921826FF
:1019E00085E091E20E94EF028093C9269093CA2677
:1019F0008091C9269091CA2699230CF457C08091F2
:101A0000C9269091CA2680349105E1F02CF4009704
:101A100051F0C097E1F12AC08A35910521F08F3F3E
:101A20009105B9F023C02FEF87EA91E6215080405D
:101A30009040E1F700C0000088ED84BF81E0809312
:101A4000790025C09091222281E0891B8093222277
:101A50001EC087EB91E2809354259093552582E137
:101A600090E0809317269093182611C0EAECF1E2DB
:101A7000E0935425F093552589E190E08093172653
:101A8000909318268091C9269091CA26868B8091C2
:101A9000172690911826892B49F06091172670918E
:101AA000182680915425909155255CCF08951F925A
:101AB0000F920FB60F9211242F933F934F935F9382
:101AC0006F937F938F939F93AF93BF93EF93FF9306
:101AD000A895809100219091012101968093002189
:101AE0009093012180911222811101C075DF85E060
:101AF00091E20E94D5020E94380580911122813422
:101B000018F41092112205C0809111228054809304
:101B1000112280910221909103210197809302214B
:101B2000909303218091022190910321892BC1F48C
:101B300082E08093260688EE93E0809302219093C2
:101B4000032181E0809310228091042181508093B1
:101B5000042180910421811103C08AE08093042133
:101B6000FF91EF91BF91AF919F918F917F916F9175
:101B70005F914F913F912F910F900FBE0F901F904B
:101B8000189590910E2280910F229817F1F080E322
:101B9000C3DC83FD1AC060910F2281E0860F809321
:101BA0000F228BE0689FB0011124675E794D80E0C1
:101BB00025DC80E0CADB90910F2280910E229813E1
:101BC00004C010920E2210920F220895EF92FF92FD
:101BD0000F931F93CF93DF93CDB7DEB72B97CDBF76
:101BE000DEBFE982FA820B831C832D833E834F8301
:101BF000588769877A878B87A0910E2281E08A0FA8
:101C000080930E229BE0A99FD0011124A75EB94DBD
:101C10009BE0FE01319601900D929A95E1F780319B
:101C200018F08FE080930E22ACDF2B96CDBFDEBF85
:101C3000DF91CF911F910F91FF90EF9008959091B8
:101C40000C2280910D229817F1F080E37ADC83FD5D
:101C50001AC060910D2281E0860F80930D228BE0E7
:101C6000689FB001112469597A4D80E0D4DB80E08F
:101C700079DB90910D2280910C22981304C0109270
:101C80000C2210920D220895EF92FF920F931F9352
:101C9000CF93DF93CDB7DEB72B97CDBFDEBFE98201
:101CA000FA820B831C832D833E834F835887698779
:101CB0007A878B87A0910C2281E08A0F80930C2277
:101CC0009BE0A99FD0011124A959BA4D9BE0FE01C8
:101CD000319601900D929A95E1F7803118F08FE0DE
:101CE00080930C22ACDF2B96CDBFDEBFDF91CF916E
:101CF0001F910F91FF90EF900895AF92BF92CF92F6
:101D0000DF92EF92FF920F931F93CF93DF93CDB7A4
:101D1000DEB7A397CDBFDEBFB82E88E1E1EFF1E2D9
:101D2000DE011C9601900D928A95E1F722E0B21235
:101D300003C082E38C8705C083E0B81202C083E34E
:101D40008C876B2D8CE227DCA82E837009F471C080
:101D5000A0FE0CC04B2DBE016F5F7F4F80E9CEDB34
:101D60002B2D40E061E08CE299DA0BC04B2DBE01D7
:101D70006F5F7F4F84E9C2DB2B2D40E062E08CE295
:101D80008DDA89819A818C3D914071F48FEF8C833B
:101D90008D838E838F839FE1988789878CEF8A87D5
:101DA000CE0101960E94ED0180912021882309F443
:101DB00040C089819A818E399540D9F181E0B8126D
:101DC0000DC0E980FA800B811C812D813E814F81FD
:101DD000588569857A858B8557DF0CC0E980FA8044
:101DE0000B811C812D813E814F81588569857A85C3
:101DF0008B85ECDE809122228823D9F049815A819B
:101E000060E070E0CE010E960E945F01C980DA802A
:101E1000EB80FC800D811E812F81388549855A8594
:101E20006B85CE0142960E94960167E1CE010C9629
:101E300099DD8A2D807A11F16B2D8DE2ACDB182FA4
:101E4000807C81F04B2D60E08DE29FDCE4EEF1E2DE
:101E5000E0935425F093552580E38B0D83836CE04C
:101E6000CF0180DD112319F082E0809325066A2DD1
:101E7000607E21F02B2D40E08CE210DA10921222CD
:101E8000A396CDBFDEBFDF91CF911F910F91FF9041
:101E9000EF90DF90CF90BF90AF9008951F920F9278
:101EA0000FB60F9211242F933F934F935F936F932D
:101EB0007F938F939F93AF93BF93EF93FF9381E0B3
:101EC000809312221ADFFF91EF91BF91AF919F9102
:101ED0008F917F916F915F914F913F912F910F90D3
:101EE0000FBE0F901F9018951F920F920FB60F9272
:101EF00011242F933F934F935F936F937F938F930F
:101F00009F93AF93BF93EF93FF9381E0809312224F
:101F100082E0F3DEFF91EF91BF91AF919F918F919E
:101F20007F916F915F914F913F912F910F900FBED5
:101F30000F901F9018951F920F920FB60F921124B9
:101F40002F933F934F935F936F937F938F939F93C1
:101F5000AF93BF93EF93FF9381E08093122283E0CE
:101F6000CCDEFF91EF91BF91AF919F918F917F91C7
:101F70006F915F914F913F912F910F900FBE0F90F6
:101F80001F90189590910A2280910B229817F1F0DA
:101F900080E3ECDA83FD1AC060910B2281E0860FAA
:101FA00080930B228BE0689FB0011124635E7A4D11
:101FB00080E03EDA80E0E3D990910B2280910A2202
:101FC000981304C010920A2210920B2208951F92B7
:101FD0000F920FB60F9211242F933F934F935F935D
:101FE0006F937F938F939F93AF93BF93EF93FF93E1
:101FF000C8DD25DEC7DFFF91EF91BF91AF919F91C3
:102000008F917F916F915F914F913F912F910F90A1
:102010000FBE0F901F901895AA1BBB1B51E107C064
:10202000AA1FBB1FA617B70710F0A61BB70B881F68
:10203000991F5A95A9F780959095BC01CD010895F7
:10204000EE0FFF1F0590F491E02D0994A29FB001BF
:10205000B39FC001A39F700D811D1124911DB29FDC
:10206000700D811D1124911D0895A0E0B0E0EAE3F8
:10207000F0E133C05B014A017901D90113962C913B
:1020800021FF1DC0C0E0D0E0C815D905D9F08C01F2
:102090006C01CA0CDB1CC8010C151D0571F00F5F2B
:1020A0001F4FD7011896ED91FC911997B701DC01EC
:1020B0008C910995892B79F305C02196E5CF80E0B5
:1020C00090E001C0CE01CDB7DEB7ECE01FC02F928B
:1020D0003F924F925F926F927F928F929F92AF92B8
:1020E000BF92CF92DF92EF92FF920F931F93CF9305
:1020F000DF93CDB7DEB7CA1BDB0BCDBFDEBF0994C4
:102100002A88398848885F846E847D848C849B8487
:10211000AA84B984C884DF80EE80FD800C811B8195
:10212000AA81B981CE0FD11DCDBFDEBFED010895CB
:04213000F894FFCF51
:1021340000858F0A9B1E1491B3363CB928ADA722A3
:10214400E3666CE978FDF77250D5DF5ACB4E44C193
:1021540043C6CC49D85D57D2F0757FFA6BEEE46183
:10216400A0252FAA3BBEB43113969C19880D078273
:102174008603098C1D98921735B0BA3FAE2B21A463
:1021840065E0EA6FFE7B71F4D65359DC4DC8C24753
:10219400C5404ACF5EDBD15476F3F97CED6862E743
:1021A40026A3A92CBD3832B795101A9F0E8B810433
:1021B400890C068312979D183ABFB530A1242EAB23
:1021C4006AEFE560F1747EFBD95C56D342C7CD4813
:1021D400CA4F45C051D4DE5B79FCF673E2676DE803
:1021E40029ACA623B2373DB89A1F159001848E0BF3
:1021F4000F8A800594111B9EBC3933B627A2A82DE3
:10220400EC6963E677F2F87D5FDAD055C4414BCED2
:102214004CC9C346D75258DDFF7A70F564E1EB6EC2
:10222400AF2A20A534B1BB3E1C9993168702088DB2
:10223400010001000100834000000104400000018E
:1022440082080000010000000000000000000000FF
:10225400011603430041004E002D00620072006924
:102264000064006700650000001C0345006D006900
:10227400006C00650020004E0069006A0073007362
:102284000065006E0000000403090409023E000218
:102294000100C00A09040000010202010005240033
:1022A4001001042402060524060001070582030820
:1022B40000FF09040100020A0000000705040240AF
:1022C4000005070583024000051201100102000009
:1022D40008EB03442001000102DC01580A006D737D
:1022E40020303030300A004D555853414E20434180
:1022F4004E206272696467650A00556E7265636F89
:10230400676E697A656420436F6D6D616E643A200F
:1023140020200A0043414E58205258204F56460A66
:1023240000317C2020207C20202020202020202000
:0A233400202020202020200A0000B5
:00000001FF
